:020000041000EA
:1000000000B5324B212058609868022188439860DF
:10001000D860186158612E4B002199600221596106
:100020000121F02299502B49196001219960352056
:1000300000F044F80222904214D00621196600F024
:1000400034F8196E01211966002018661A6600F04E
:100050002CF8196E196E196E052000F02FF8012189
:100060000842F9D1002199601B49196000215960AB
:100070001A491B48016001219960EB211966A021F2
:10008000196600F012F800219960164914480160C1
:100090000121996001BC002800D000471248134993
:1000A000086003C880F30888084703B5996A0420EC
:1000B0000142FBD001200142F8D103BD02B5186610
:1000C0001866FFF7F2FF186E186E02BD00000240BE
:1000D000000000180000070000035F00212200005C
:1000E000F4000018222000A00001001008ED00E03C
:1000F00000000000000000000000000074B24E7A12
:1001000000200420F7010010CB010010CD010010E9
:10011000C9010010C9010010C9010010C901001077
:10012000C9010010C9010010C9010010CF01001061
:10013000C9010010C9010010D1010010D301001045
:10014000C1010010C1010010C1010010C101001067
:10015000C1010010C1010010C1010010C101001057
:10016000C1010010C1010010C1010010C101001047
:10017000C1010010C1010010C1010010C101001037
:10018000C1010010C1010010C1010010C101001027
:10019000C1010010C1010010C1010010C101001017
:1001A000C1010010C1010010C1010010C101001007
:1001B000C1010010C1010010C1010010C1010010F7
:1001C000EFF30580103800BE00BE00BE00BE00BECA
:1001D00000BE00BEF2EB8871C8520010F45200104D
:1001E0003802001090A31AE71E481F49086006C88D
:1001F00081F3088810471D480068002801D019487D
:10020000F3E70DA40ECC002902D000F012F8F9E7B4
:100210001749184A002000E001C19142FCD116495B
:100220008847164988471649884700BEFDE701C937
:1002300001C29A42FBD37047F4520010C000002064
:100240004004002074560010000004200000042028
:10025000745600100010042000100420000000005C
:10026000704700000000000008ED00E0000000D032
:10027000400400207009002045380010D50200100D
:1002800005380010F8B5C04606480749091A8B1012
:10029000C90FC91810B5491003D0044B002B00D06A
:1002A000984710BD400400204004002000000000DA
:1002B000054B10B5002B03D00449054800E000BFF2
:1002C000FFF7E2FF10BDC046000000003407002029
:1002D000E8430010F0B5CE46474680B5FBB003F0CA
:1002E000D1FB7A4D7A49280003F064FE03210420F3
:1002F00000F0D0FA0321052000F0CCFA0022012101
:10030000042000F0E1FA00220121052000F0DCFACF
:1003100078AC3C222900200000F0F6F8200000F024
:100320004BF923AD6B49280000F0C6F9280000F016
:10033000E3F9694803F0ABFB68490022200000F0B4
:1003400059F967490222200000F054F96549032257
:10035000200000F04FF94022002113A802F034F9E8
:1003600000239846013B01931E0068E078A800F046
:10037000FBF8002C29D023AB9846180000F082FA35
:100380000700404600F078FA0200574B3900180089
:1003900003F0ACFB554978AB98460022180000F0FA
:1003A00029F953490122404600F024F9022239007C
:1003B000404600F01FF9390013A803F09BFFFA2014
:1003C000C00001F0A9F8A04644E04A4803F05FFBF2
:1003D000424978AE0022300000F00CF94049022278
:1003E000300000F007F93F490322300000F002F925
:1003F00013AB00221A70A04601235B4201931E003A
:1004000028E0019BAB4236D113A903F02FFF00284F
:1004100012D030E0384A0BAE23002021300003F028
:10042000C9F90322310078A800F0E4F8390013A8D4
:1004300003F060FF01952600642001F06DF823AC05
:10044000200000F00BFA200000F01EFA0400050066
:1004500080458BD1002DEFD023AF380000F00EFA8D
:100460000400380000F00CFA0500380000F00AFA29
:100470000700A642C5D021483B002200290003F016
:1004800035FB78AE300000F06FF8184900223000DC
:1004900000F0B0F81A4A03AB99463B0020214846C9
:1004A00003F088F901224946300000F0A3F8002D3E
:1004B000B0DD144A0BAE2B002021300003F07AF996
:1004C0000222310078A800F095F8A3E7E8020020A6
:1004D000801A060000400340E84300100C4400105E
:1004E0001C440010284400103844001054440010EC
:1004F000644400106C440010CC4400107C44001094
:10050000B4440010C044001001600271704700B58F
:1005100085B003AA0023138051700179006800930D
:10052000023303F071FD05B000BDF0B583B002AF3A
:100530000400551C13000833DB08DB006846C31AAF
:100540009D4602AE402333700920684402F042F811
:1005500021792068002300932B00320003F054FD22
:10056000BD4601B0F0BD000030B5A3B0050020AC21
:10057000104B1A6820929B88A38004E02178280001
:10058000FFF7C5FF013486236B449C42F6D18022DD
:100590000021684602F018F8002406E0802269462F
:1005A0002800FFF7C2FF0134E4B2072CF6D923B0CC
:1005B00030BDC0460C4E001070B588B0050001ACCF
:1005C0000B4B220043CB43C243CB43C21B78137077
:1005D00004E021782800FFF79AFF01341D236B44C3
:1005E0009C42F6D12800FFF7BFFF08B070BDC0469F
:1005F000144E0010F0B5A3B006000D00170020AC9B
:1006000006220021200001F0DFFF212323705E334A
:10061000A3705D3BE3702771677104E021783000BF
:10062000FFF775FF013486236B449C42F6D180228C
:100630000021684601F0C8FF002206E07F2A03D8A7
:100640006B4600219954013201352B78002B17D0CD
:100650007F2A15D819002039C9B25F29F4D8203B68
:100660009900C9180A4BC9180023042BE6D87F2A21
:10067000E4D8CC5C684684540133DBB20132F4E741
:10068000802269463000FFF750FF23B0F0BDC0461E
:100690002C4C001082B000226B46D91D06E0836905
:1006A000DB06FCD403680B7001320131002AF6D05E
:1006B0006B46D87902B0704770B504000160002322
:1006C00043606E228260C360E23283505030D03A81
:1006D0005200002101F078FF250010354022002152
:1006E000280001F071FF03490522280001F072FF84
:1006F000200070BDDC44001010B5E1210068490203
:1007000001F0A6F80221002000F0C4F80221012027
:1007100000F0C0F8014803F0BAF910BDE44400103D
:1007200010B5040004E0A8235B00E358002B16DC9E
:1007300020688369DB061BD4FFF7ACFF0A28F2D0E0
:100740000D28F0D0A8235B00E358FE2BF0DC591CE9
:10075000A8225200A150E31850331870E8E7E318BC
:10076000503300221A70A8235B00E250012000E001
:10077000002010BD70B505000C002D490622200098
:1007800003F00CFD00281CD02A490522200003F0AC
:1007900005FD00281ED028490622200003F0FEFC9B
:1007A000002826D025490722200003F0F7FC002866
:1007B0002CD023490522200003F0F0FC00282ED085
:1007C00070BDA01D03F02CFC010068601D4803F003
:1007D0008DF9F5E72E001036611D3F22300003F041
:1007E00011FD4F230022EA541748310003F07EF92F
:1007F000E6E700236B60EB60280010301349052208
:1008000001F0E8FE124803F042F9D9E7E01D03F0D9
:1008100007FC0100A8600F4803F068F9D0E7601DED
:1008200003F0FEFB0100E8600B4803F05FF9C7E747
:10083000104500102C450010444500104C45001098
:100840006C4500101845001034450010DC440010C1
:100850006C440010544500107445001070B505003C
:10086000FFF75EFF041E01D1200070BD290050314A
:100870002800FFF77FFFF7E7406870478068704700
:10088000C0687047103070474368D817C01AC00F4F
:100890007047000010B58300084A9A181468402277
:1008A000544080322240064CA44663441A60C00083
:1008B000044B9C466044416010BDC04604C00140EA
:1008C00004D001400040014080000C4B9C46604435
:1008D00000290ED00823002A0DD0042213430268F9
:1008E00053400C221340802252019446604403601E
:1008F00070470023EFE70022F0E7C04604C0014044
:100900000FB400B583B0084803F0C1F8049B002B76
:1009100007D005A90191180003F0C8F8034803F0B7
:10092000B6F8012002F06CFF88450010B0440010BA
:10093000EFF3108072B6034B1B68002BFBD0BFF3A4
:100940005F8F70472C0100D0BFF35F8F024B0022F6
:100950001A6080F3108870472C0100D0F8B50600AB
:100960000C001500FFF7E4FFE308F718F15C07221D
:100970002240012393400B4205D1DBB20B433B7075
:10098000FFF7E2FFF8BD21002800FFF7B9FF0000E4
:10099000054A1078431CDBB21370172B02D91300E1
:1009A00010221A707047C04640020020002307E062
:1009B000054A9A189200BFF35F8F0021116001333E
:1009C0001F2BF5D97047C04640000034074B9B6889
:1009D000103080001950BFF35F8FBFF35F8F044B5F
:1009E0000021196082F310887047C04600ED00E0D6
:1009F000240100D00048704700E400E010B5FFF784
:100A0000F9FF002302E0034A04C00133072BFAD99F
:100A100010BDC0468080808010B50388DA0A1C2A89
:100A200005D15B055B1502335B00C01810BD034B9D
:100A3000034A8E210348490002F0E8FE9845001061
:100A40007C4E0010B045001010B5091A0B1F0A4A61
:100A500088180A4A904208D8C90706D45B105B057B
:100A60005B0D0748184380B210BD064B064A87212C
:100A70000648490002F0CAFEFC070000FE0F000015
:100A800000E0FFFFF8450010704E0010B045001068
:100A900010B5091A04394A08090B08D14905490D4E
:100AA000064B0B430380064B1343438010BD054B9D
:100AB000054A8B210548490002F0A8FE00F0FFFF1F
:100AC00000F8FFFF284600104C4E0010B045001003
:100AD00001238340034A10681840431E9841C0B266
:100AE0007047C04600E100E0002A05D0044BC02258
:100AF0005200995019607047014A8023D150FAE79B
:100B000000E100E010B50A001F23034001219940D5
:100B10004009FFF7E9FF10BD024B9B6810308000D1
:100B2000C058704700ED00E070B504000D00EFF311
:100B3000108672B60C4B1B68002BFBD0BFF35F8F87
:100B40002000FFF7E9FF094B984201D0A84205D1E8
:100B5000320029002000FFF739FF70BD044B054A21
:100B60000548ED2102F052FE240100D0C101001021
:100B7000384600108C4E0010B0450010F0B5CE463F
:100B8000474680B583B006000D00EFF3108872B6BB
:100B90004F4B1B68002BFBD0BFF35F8F4D4B9A6808
:100BA00034001034A300D7584B4B9F4207D0AF42BC
:100BB00000D18AE00197494BFB1A2F2B09D94246F5
:100BC00039003000FFF702FF03B0C0BCB946B046A1
:100BD000F0BD3000FFF77CFF814600213000FFF7B9
:100BE00091FFBFF35F8FEFF30581002901D08C42A5
:100BF00011D10123019C9C430020A3689D4211D088
:100C00000622A256002A0CDB53009B189B00334A95
:100C10002000D418F1E7324B324A3348334902F00E
:100C2000F5FD20009D4249D106256557002D2BDB9F
:100C30002A4B6A00521992009B189A68A260DA79CE
:100C4000E2719B795BB2A371002B0FDA2848A08078
:100C5000224B6A00521992009B18264A117899710A
:100C6000157049463000FFF74DFFA8E768004019AE
:100C700080001A4BC0180430FFF7CEFE0100231D80
:100C80001800FFF7E1FEE2E7002912D100280ED09C
:100C9000FF238371184B838016490B78A3710F4A89
:100CA000164BA41A644163431B0D0B70D9E70A4F1E
:100CB000F2E71349201DFFF7EBFED2E7114B094A7B
:100CC00091210948890002F0A1FD034F77E7C04652
:100CD000240100D000ED00E0C1010010440200201A
:100CE000704600105C4E0010B0450010020200007B
:100CF00001BD00006C09002001BDFFFFAAAA000091
:100D00007E020020A4460010F8B5012202432C4BBD
:100D1000D31A2F2B28D8EFF30583002B2AD0EFF31B
:100D2000108472B6274909680029FBD0BFF35F8F92
:100D3000234D25490600761B76417143090D4DB2BE
:100D4000224989689B00C958914219D00021032982
:100D500030D81B4B4A00521892009B189B795BB20B
:100D6000AB421DD00131F2E7194B1A4A1A481B4910
:100D700002F04CFD1A4B174A17481A4902F046FD7B
:100D8000124A92681849D150184B1A7882711D7016
:100D9000BFF35F8F0B4B00221A6084F31088F8BDFD
:100DA000074B4A005618B6009E19FF27B771104A24
:100DB000B280E9E70F4B074A07480F4902F026FDCA
:100DC00044020020240100D0AAAA000000ED00E0A7
:100DD000AC460010304E0010B04500107F020000FD
:100DE000D446001082020000C10100106C090020EE
:100DF00001BDFFFFE046001093020000024B9C463D
:100E000061448900016070474000003410B504005F
:100E1000FFF7BEFD01002000FFF7F0FFFF23237165
:100E2000BFF35F8F10BD10B50400FFF7B1FD0100E7
:100E30002000FFF7E3FFFF23237100236371BFF35B
:100E40005F8F10BD10B50D4C09E00D4B0D4A0E48DB
:100E50001A2102F0DBFC2000FFF7D8FF08340B4B0F
:100E60009C4209D22368002BF5D0012BEDD1200044
:100E7000FFF7D9FF0834F2E710BDC0463804002060
:100E8000E8460010CC4E0010084700104004002037
:100E900030B5846A151B0B1D9B001B581B1B9D4204
:100EA00004D3046A01238B40234202D10431890018
:100EB0000A5030BD00040843704700000A4B19680F
:100EC000EFF3108372B60A68002AFCD0BFF35F8F7D
:100ED000054A1268BFF35F8F0021116083F3108809
:100EE00040BF00200021704760090020F0B5DE46B9
:100EF00057464E464546E0B587B0EFF305830322DB
:100F00001A409246AE4B9200D7583B78534507D1D2
:100F10000123524693409946AA4B4A461A6025E15E
:100F2000A94BAA4AAA48922102F070FC7A69730080
:100F30009B19DB009046984443469C68DD68A548B1
:100F400000F0ACFB001BA941002900DA16E1002DDE
:100F500074DB43461B699B469F4B9B454FD0082340
:100F6000F85E4346598889B2FFF7A4FF43465969A2
:100F7000D847029003910299039A0B001000134383
:100F80005CD013000A00002847DAA41A9D4100949F
:100F900001954346009C019D9C60DD600021595EE7
:100FA000002900DAEAE078694B005B18DB00C3181F
:100FB0009A68DB68A41A9D41002D00DADEE03981D1
:100FC0003D000835844604912A000597B346009EEB
:100FD000019F049B002B2ADB0023D45E63001B19B6
:100FE000DB0063449C68DD6830003900001BA941C8
:100FF00000291CDB1A000021595E0491E9E74346F1
:101000005B699B461B6958469847002816D05B468B
:101010001A685B6802920393ADE76E4800F03EFBEE
:10102000029B039C1B184C4100930194B1E7049967
:10103000059F5E464346198016809FE04346002286
:101040009B5E3B813A69EFF3108372B61168002909
:10105000FCD0BFF35F8F02217A5E41460A807E801A
:101060003A69BFF35F8F0021116083F3108885E038
:101070003969EFF3108372B60A68002AFCD0BFF317
:101080005F8FB88800B201225242BA803A69BFF33A
:101090005F8F0021116083F310880500BC461CE0BF
:1010A000049300229A5E002A0EDB049B0021595E05
:1010B0004B005B18DB0063449868D96834003D003E
:1010C000241A8D41002DEBDA04995D46009B9C4665
:1010D00044460D800023E55E2280002D12DB63462E
:1010E00058696C006419E4000419A668E768614651
:1010F000083108229A5EAB46049163460093A046ED
:101100008446D0E767463EE00023BB7139000831D2
:101110000823F85E0EE001246442E5179460D56070
:1011200008243B5F834204D00E8008243B5F138079
:1011300038813000431C29D07C6943001B18DB0038
:10114000E218E65E53881BB2002BE4DB1100F0E7E7
:1011500022002B0051461F48FFF79AFE1D4800F061
:101160009DFA241A8D41002D22DC1FD0194B4A46CE
:101170005A630823FE5E002E00DBD7E6BB881BB255
:10118000002B00DB74E7BB79002BBDD10823FA5E8E
:10119000002A0DDB796953009B18DB00CB189C6893
:1011A000DD68631CD4D16B1CD8D0D1E7002CDDD016
:1011B00040BF07B0F0BCBB46B246A946A046F0BD52
:1011C0004C0700203C7005409C470010F84E001072
:1011D000C847001000400540ED0E001070B5040037
:1011E0000D0011000126AE4006622800FFF79CFCAE
:1011F00001212800FFF786FC024B9C4664442660D0
:1012000070BDC04638200000F8B5CE46474680B5D0
:101210000600894690461F00C160FFF7B9FB154BD9
:101220009C4660448000306143463370BBB273819A
:10123000D022120612787270012252423281B2809C
:101240009B187380002406E0621E736965002D19E7
:10125000ED005A530134BC42F6D3074B424692008C
:10126000D650064A41464846FFF7B8FFC0BCB946CB
:10127000B046F8BD400000344C070020ED0E0010D1
:1012800010B5064B1B69002B01D0044810BD044B60
:10129000044A0548652102F0B9FAC0468C020020D4
:1012A00008480010E04E0010C8470010F8B50400D0
:1012B0000569EFF3108072B629680029FCD0BFF3EE
:1012C0005F8F0221665E656971008919C9006D181A
:1012D000002E02DB0027E95F61802169BFF35F8F89
:1012E00000270F6080F31088002E2CDB06992961FF
:1012F00007996961AA60EB606B8801335B04590C44
:10130000002B00D1012169803000FFF7D3FD216956
:10131000EFF3108372B60A68002AFCD0BFF35F8F28
:10132000A2882A80A6802269BFF35F8F0021116006
:1013300083F31088E368217801228A4003498C46B0
:1013400063441A60F8BD01204042FBE73C200000E6
:1013500070B582B0060014001D0008AB1B78002B8E
:1013600007D100F0CDF922002B00121A8B41002B7F
:101370000ADB079B0193069B009322002B003000A1
:10138000FFF794FF02B070BD0020FBE7F0B5C64642
:1013900000B584B00500884616001F000AAB1C7813
:1013A000FFF76EFF0294019700962A004346FFF76D
:1013B000CFFF04B080BCB846F0BD000030B50400DB
:1013C0000A1443899A422EDA406953009B18DB00C5
:1013D000C3182569EFF3108272B628680028FCD084
:1013E000BFF35F8F588885B20904090C884212D078
:1013F00000202369BFF35F8F0021196082F31088FA
:10140000002811D0E368217801228A4007498C46E0
:1014100063441A6008E00649294389B259800123D0
:10142000A3710120E5E7002030BDC0463C2000004C
:101430000080FFFF10B50400FFF722FF2100FFF737
:10144000BDFF10BDF0B583B006000F00EFF30583BC
:10145000002B1AD106246442E517A4197D418D4260
:1014600002D803D1844201D90024002500F048F9B4
:1014700022002B00121A8B41002B0BDC08D030000D
:10148000390000F04FF903B0F0BD1648FFF738FA05
:10149000002AF4D0144A0023009320002900FFF70B
:1014A00075FF002813DAEAE7104B1968EFF3108391
:1014B00072B60A68002AFCD0BFF35F8F0B4A12682D
:1014C000BFF35F8F0021116083F3108820BF084BAA
:1014D0005B6A9D42E8D80649896AA142CFD29D4203
:1014E000CDD1E1E72C480010BD0E001060090020AE
:1014F0000040054070B504000D0000F001F900192E
:101500006941002902DBFFF79DFF70BD01204042C9
:101510000049F8E7FFFFFF7F10B5FA229200002391
:10152000002100F0E5FFFFF7E5FF10BDF0B5CE4666
:10153000474680B583B005000C00EFF30583002B10
:1015400015D03F4B5B6A8B4209D33D4A926A824277
:101550000BD28B4201D0012002E0002000E00020ED
:1015600003B0C0BCB946B046F0BD0120F8E7FFF7B4
:1015700087FEC3689946037898462E0027004846A0
:1015800000F08CF802000B00B61A9F41434604336A
:101590009B004A469B581B1A0022BA420FDC0CD013
:1015A00020BF274B5B6A9C422DD8254A926AAA42EB
:1015B0002BD29C4225D00120D2E7B342F0D9214A58
:1015C0000023009328002100FFF7E0FE00281EDD25
:1015D0001B4B5B6A9C4205D8194A926AAA4202D206
:1015E0009C4200D120BFFFF725FF154B5B6A9C4250
:1015F00021D8134A926AAA421FD29C4219D00120D4
:10160000AEE70020ACE70020AAE70120A8E70C4BDA
:101610005B6A9C4209D80A4A926AAA4207D29C4253
:1016200001D001209CE700209AE7002098E70120E4
:1016300096E7002094E7002092E7012090E7C0465B
:1016400000400540BD0E00100048704700400540B6
:1016500010B50B4B1B69002B04D00A480A21FFF779
:10166000CDFB10BDFFF7F0FF0400032100F00CF8E4
:101670000348102303222100FFF7C6FDEDE7C04613
:101680008C0200206009002010B5024A0248FFF7D2
:1016900065F910BD7C480010000700200200436A75
:1016A000906A1900536A9942FAD17047416A00E082
:1016B000416A9942FCD300E0416A994202D1816AB1
:1016C0009142F9D37047F0B5C64600B58046140084
:1016D0001D00FFF7E3FF06000F0022002B00921908
:1016E0007B41994202D804D1904202D90122524250
:1016F000D3174046FFF7DAFF80BCB846F0BD0000C4
:1017000010B50248FFF7CAFF10BDC04600400540B3
:1017100010B502000B000248FFF7D5FF10BDC04610
:101720000040054010B502000B000248FFF7BEFF65
:1017300010BDC04600400540074B98420AD0162312
:1017400001229A40054B1A60054B1B681100994312
:10175000FAD170471723F3E70080034000F0004000
:1017600008C0004070B5046BE30701D4200070BDD1
:101770000B4BC3180B4A1A60456A836AAD01ED181A
:10178000AD02062000F016F9074900F01BFB01002E
:10179000280000F017FB0021FFF7BAFFE6E7C0467C
:1017A00030300000010300004E0E000070B5040050
:1017B0000E001500FFF7D6FFE36A5E403540024B8E
:1017C000E3181D60206370BD2C10000070B505008B
:1017D0000C00062000F0EEF8C000210000F0F2FA44
:1017E0000130C60907D00E4B9E4215D84008340080
:1017F0003F26064000E001246C62AE620022002118
:101800002800FFF7D3FF062000F0D4F88000A101E4
:10181000891900F0D7FA70BD0026024CECE7C046EB
:10182000FEFF0000FFFF0000002909D00A22064B3E
:101830009C46604443425841044B4000C2527047AA
:1018400080225200F3E7C0460080FCBF64090020FC
:1018500070B504000D00062000F0ACF800281ED082
:10186000104B9C421CD01622012393400E4A136059
:101870002000FFF761FF00212000FFF7D5FF2900BE
:101880002000FFF7A3FFE26A70235A400E33134093
:10189000064AA2181360064B23630323A36470BD9A
:1018A0001722E1E70080034000E000402C10000018
:1018B00001030000F8B5D646474680B506000D0086
:1018C0001700984644002418A400294B9C46644401
:1018D0006368089A934200D26260331FDBB29A4673
:1018E000012B2ED980221201C0239B01E3181A601C
:1018F000204BB200D158002907D0586900F062FA95
:10190000013043001B18033BFDD27F0123685F4079
:10191000E0233B4080225201A21813605346012B62
:101920001AD980239B01E318802212011A60089BB8
:101930006360104BB6004246F250C0BCBA46B04697
:10194000F8BD012DCED10322C0239B01E3181A60FC
:10195000A368DB07FCD5D8E72168694003230B4067
:101960001360A3680122AA401A42FAD0D9E7C04600
:101970000080004004070020F0B583B005000E0091
:1019800017001800089900F01DFA0300089A1402C5
:1019900000943A0031002800FFF78CFF03B0F0BD3F
:1019A00010B582B0802464000094FFF783FF02B07A
:1019B00010BD0000014B8000C05870470407002094
:1019C000F0B5C64600B504000E0017001D003748EC
:1019D00000F0F8F98046364BFA18364B9A4239D85F
:1019E0000100380000F0EEF90200103A98235B0085
:1019F0009A4235D86B1E062B38D8069B013B062B26
:101A000034D83F09474537D32D04069B1B031D439C
:101A10002368002B36DB284B9C4244D00C22012348
:101A20009340264A1360264A1360264A126819001A
:101A300091430A1EF9D12660A060234BE31821329E
:101A40001A602268002AFCDAE56008221A6080BC6D
:101A5000B846F0BD1D4B1E4A1E48112101F0D6FEAE
:101A60001D4B1B4A1B48192101F0D0FE1B4B184A85
:101A700018481C2101F0CAFE194B154A15482321AC
:101A800001F0C4FE22683F231340B342C3D1A368D0
:101A90001B051B0D8342BED1E368EE22D202134028
:101AA000AB42B8D1D3E70D22B9E7C046001BB7005F
:101AB00080E84BD380F8A93200C0024000E000402B
:101AC00000F0004008C0004004300000A0480010B2
:101AD000104F0010F0480010384900105449001011
:101AE000A049001080239B000B43014AD36270473A
:101AF0000080054010B5010018231B8814221088AF
:101B0000984710BD10B5010018231B8816221088B5
:101B1000984710BDF0B5C64600B507000E00002579
:101B20000123984600E00135B5420AD2AC003C19C9
:101B30002068FFF7DFFF20600028F4D100239846DB
:101B4000F1E7404680BCB846F0BD0000074BAA2232
:101B500012011A608D225200DA60054B054A1A60A4
:101B6000024B5B68002BFBDA7047C0460040024026
:101B70000060024000B0FA0010B5040001E008CC9B
:101B80009847024B9C42FAD310BDC046E443001074
:101B90007047000010B50248FFF7EEFF10BDC046C9
:101BA000A8430010054B064A1A60064B064A1A6005
:101BB000064B1A68044B9343FAD1704700E000408B
:101BC000BFCDFBFE00F00040FE7F3C0008C000409F
:101BD000044BDB6C002B03D1034B8022D2021A6032
:101BE0007047C046000011504C201150044B054A6C
:101BF0001A60054B1B68DB43DB01FAD17047C04616
:101C000000F00040FFFFFF0108C00040034B4022EE
:101C10009A675A671A67DA667047C04600F0014053
:101C200010B5FEF7C3FE10BD10B50C4A0C4BD21A0E
:101C300092101400302A00D9302292000948084935
:101C400000F0C8FC04E0084A064BA100CA50013469
:101C50002F2CF8D9034B054A936010BDC00100102A
:101C60000001001000000020C101001000ED00E0A4
:101C700070B50420FFF79EFE064900F0A3F80500AA
:101C80000024002C00DD70BDE0B22900FFF72AFF20
:101C90000134F6E740420F0030B583B0274B0022F5
:101CA0009A67FFF753FF264B01221A60234B5B6CA8
:101CB000012BFBD1234B03221A60204B9B6B012B82
:101CC000FBD10133009304331F4A01211F48FFF762
:101CD00077FE052300931E4A01211E48FFF770FE80
:101CE0001D4B002202210420FFF75AFE1B4D2B0042
:101CF000002201210520FFF753FE194C230000228A
:101D000000210720FFF74CFE2300002200210820BD
:101D1000FFF746FE8023DB00009323000022002112
:101D20000920FFF729FE2B00002200210620FFF7E3
:101D300037FEFFF79DFF03B030BDC0460080004076
:101D40003CB0004030B00040002F68590080024095
:101D5000008C864700C00240001BB7004059730743
:101D6000006CDC0201480421014B1847B00200203E
:101D7000151B0010124A936F9B0815D29066D1660E
:101D8000002905D0FFE7FFE7FFE7516F106F7047AD
:101D900004B580210906C2175140002800D0C8436D
:101DA00002F0F2FA002104BDF0B5146E556E576FC3
:101DB000166FFFF7E3FF1466556657671667F0BDA9
:101DC000000000D0114A936F9B0813D21066516631
:101DD000002905D0FFE7FFE7FFE7516F106F70475D
:101DE00004B5002801D00020C04302F0CDFA002144
:101DF00004BDC046F0B5146E556E576F166FFFF7F1
:101E0000E5FF1466556657671667F0BD000000D001
:101E100094464A4A926F9208624601D228E0C04630
:101E2000F0B5464E346E756E776F366F00F020F861
:101E30009446424A14665566576716676246F0BD77
:101E400094463E4A926F9208624601D254E0C046E0
:101E5000F0B53A4E346E756E776F366F00F04CF811
:101E60009446364A14665566576716676246F0BD53
:101E7000002B24DB11D000293EDA00B5C9434042D3
:101E800000D1013100F038F8C943404200D101319E
:101E9000DB43524200D1013300BD002AEBD10028C0
:101EA00001D1002905D00020C90FC90701D1C043C5
:101EB000410800B502F060FA0022002300BD00B521
:101EC00000290ADBDB43524200D1013300F014F851
:101ED000C943404200D1013100BDC943404200D155
:101EE0000131DB43524200D1013300F005F8DB43FE
:101EF000524200D1013300BD002923D1002B18D15B
:101F0000002A0CD0BC460D4F38667A6600210023AB
:101F1000FFE7FFE7FFE77A6F386F674670470028F3
:101F200001D00748010000B502F026FA0022002384
:101F300000BD02000B00002000217047000000D00F
:101F4000FFFFFFFF002B00D0BFE0130C28D1002AB9
:101F5000E7D080B4114F39667A66FFE7FFE730B407
:101F6000040C7B6F396F1B0423433B667A66FFE7E3
:101F7000FFE7FFE7C04684B27B6F3D6F1B0423433E
:101F80003B667A66FFE7FFE7C04600232C042D0C72
:101F90007A6F386F00196941B0BC7047000000D0FB
:101FA000F0B594460025140E01D112020835140F25
:101FB00001D112010435940F01D192000235D40FE2
:101FC00001D152000135D40B0134254F7C66254CDC
:101FD0003C660E0C93B2FFE7FFE7FFE73C6F6643FA
:101FE000360C7703BE467343DF0B5B04C01AB9415E
:101FF000130C7343DB18C91ACE086643360CB6447B
:1020000093B273431F0F1B01C01AB941130C7343E2
:102010001F0B1B05C01AB941860D8F023E43664354
:10202000360C092D24DB520A7243801A7703460AC4
:102030006643360C16235B1BDE40DF40BF19644647
:102040006643821B7046043506330100D940A84020
:10205000C01900D30131A24206D20023F0BD000016
:10206000000000D0FFFFFFFF121B0130F3D3F1E7A8
:1020700009277F1BFE406446A2B27243801A00D239
:102080000139220C7243130C1204821A99410B007D
:102090007046043513370100F940A840801900D379
:1020A0000131002B02D1A2420AD2F0BD013000D38F
:1020B0000131121BFAD2013BF8D1A24200D2F0BD8D
:1020C000013000D30131121BF7E7F0B51C0C00D032
:1020D00080E00CB400251C0A04D11B02160E334309
:1020E000120208351C0B04D11B01160F33431201D9
:1020F00004359C0B04D19B00960F334392000235AC
:10210000DC0B02D192185B4101351C009718644129
:102110000134464F7C66464C3C660E0CFFE7FFE7F9
:10212000FFE7C0463C6F6643360C7703BE4697B266
:102130007743C01B00D20139C01B00D201399FB2C6
:102140007743C91BC91B170C77437E04FF0B801B09
:10215000B941CE086643360C0C2D33DBB644120B66
:102160001F053A431B0B97B27743C01B00D20139BE
:102170009FB27743C91B170C77433E043F0C801B6B
:10218000B941860D8F023E43664329277F1BFE40DF
:102190000C3D7746AF40BF1930BCA2B2ABB2724320
:1021A0007343801A9941220C7243130C1204801A53
:1021B000994102000B000137001BA941F9D2781E9A
:1021C0000021F0BD0C277F1BFE4077467F0BAF4000
:1021D000FF19E0E700245D1C07D0144F7D663966C7
:1021E000FFE7FFE7FFE7FFE73C6F95B29EB265436D
:1021F0006643401BB141150C1E0C65436643360413
:102200002F0C3E432D04401BB141994204D20200E1
:102210000B0020000021F0BD01D19042F7D3801ABD
:10222000994101349942F2D3F6E70000000000D052
:10223000FFFFFFFF48404140484018B4134B5B6824
:10224000019308BD18B4114B1B68019308BD944657
:102250000F4A926F920805D2624618B40B4BDB68A6
:10226000019308BD0A4AF0B5146E556E576F166F8C
:102270006246FFF7F2FF064A14665566576716670F
:10228000F0BD18B4014B9B68019308BD5C070020AA
:10229000000000D0FFB550404240504059404B40F4
:1022A000594000E0FFB5154F4C00640D03D0BC420F
:1022B00004D10C0314D80020090D09055C00640D3D
:1022C00003D0BC4204D11C030AD800221B0D1B05FD
:1022D00001264B4009D44B4003D58B4200D18242AA
:1022E000FFBD9942FCD19042FFBD0B43DB18034375
:1022F0001343F5D0C9434918FFBD0000FF07000094
:1023000000B5FFF7CFFF804100BDC04600B5FFF725
:10231000C9FF01D9002000BD012000BD00B5FFF7B5
:10232000B9FF01D9002000BD012000BD00B5FFF7B5
:10233000B1FF804100BD012040054A00121804D8B9
:102340005A00121801D80020704701207047000081
:102350000021002805D17047C1174840401AFAD023
:10236000C90713B5064B1B6898470CBC441CA24018
:102370001005120B0349091B09051943114310BD30
:102380005C0800201F04000010B54C00620D802383
:10239000D218DB00D21A5B057E2A10DD9E3A13DAD2
:1023A000CC170903490819435242D1406400013453
:1023B0001532202A05DAD0400843604310BD0020C2
:1023C00010BD0846604310BDC80FC018013810BDCD
:1023D00018B4024B5B6A019308BD00005C07002043
:1023E00010B50148FEF78CFABC49001070B51323F4
:1023F0001C78012C12D0012C12DC214B214A936451
:102400002148FFF777FB214B186070BD20491D4A1A
:102410009800815001331F2BF8D9ECE70023FAE72D
:102420001C48FFF76FFB05001B48FFF76BFB0238EA
:1024300003789B007F2B09DD12488022290000F0E1
:10244000C9F8022C08D0022CDADCD6E7134B144A68
:102450001448332101F0DAF9134B1A88B5231B0213
:102460009A4209D1114B1A88114B9A4204D1114B4F
:102470001A88114B9A42E6D00020FEF741FAC04676
:10248000BD2400105C0700204C3300005C080020D5
:10249000E12300105344000053460000D4490010CB
:1024A0001C4F0010184A001054380000D8380000A3
:1024B000494600009C3800005946000007B56046B8
:1024C000002800D100BE01880A0A0230DF2AFAD1B2
:1024D000C9B2820804D3028840880004104300E097
:1024E0000068024A5050039007BD00005C070020BE
:1024F00051434343C9188C46110C83B24B4310B46B
:10250000040C614392B280B2504362431C041B0C22
:10251000001910BC59411304120CC01851416144F8
:102520007047000010B50148FEF7EAF98445001035
:1025300070B513231E781848FFF7E4FA0500012E42
:1025400011D0012E09DDAB1E1B789B007F2B1DDDFA
:1025500012488022290000F03DF81148FFF7CAFA1E
:10256000104B186070BD0D485422290000F032F85D
:10257000002300E001331F2BE3D8084A9C00A25837
:10258000002AF7D10849054AA150F3E7074B084A4A
:102590000848422101F03AF9534600006008002043
:1025A0004C3300005C08002025250010704A001004
:1025B000304F0010A44A001001480421014B184775
:1025C000C0020020151B0010014B1B6818470000BB
:1025D000C0020020014B5B6818470000C0020020C9
:1025E0009A4200D288547047704710B5002802D034
:1025F0000B684968984710BD0100002007E0830080
:102600001B185B00501C08601078C01830380A682E
:102610001378303BDBB2092BF1D97047F0B5DE46B9
:1026200057464E464546E0B583B093461F000C9B87
:102630009A460D9C0E9B99460F9B9B0717D0B84658
:102640000F00060022E0551C4B4641462020B847AB
:1026500001342A00B442F6D33D004F465C46019B4C
:102660009B46B1464646B84637002E000EE0019222
:10267000A34688464E46B9460700EBE7013C551C89
:102680005346185D43463900B0472A00002CF5D167
:1026900035003E0047460F9B9B0711D4100003B046
:1026A000F0BCBB46B246A946A046F0BD541C4B4602
:1026B00041462020B8472200531BB342F6D3EDE732
:1026C000B0464E46B9462F005D46F5E7F0B5CE461A
:1026D000474680B585B0944698460C9D0D9C0EAB40
:1026E0001B789946109A119B129EB7071CD4002B99
:1026F0000CD0F7070AD54F46002F02D10C373742CE
:1027000004D0013B02E030272F550134944201D21E
:102710001F2CF8D9F70707D59C4205D21F2C03D8E8
:1027200030272F550134F5E7F70612D5770505D484
:10273000002C03D0944221D09C421FD00F9A102A23
:102740002FD00F9A022A36D01F2C0AD830222A55B1
:1027500001341F2C05D84A46002A32D02D222A5592
:102760000134039602930194009543466246FFF7B5
:1027700055FF05B0C0BCB946B046F0BD621E012C85
:1027800017D00F9F102F0BD014000F9A102AD8D1FA
:10279000B206D6D51F2CD4D858222A550134D3E7F7
:1027A000023CB206F1D41F2CEFD878222A5501340E
:1027B000CAE71400C2E71F2CD3D860322A5501346F
:1027C000C2E7720703D52B222A550134C9E7320725
:1027D000C7D520222A550134C3E7F0B5DE46574657
:1027E0004E464546E0B593B081468A460892099325
:1027F0001CAB10CB1B789B461E9D219B9846002C42
:1028000003D1102342469A4390468023DB0046467C
:102810001E4042461A4218D0002C22D0002614E056
:10282000424692061BD54121C918C9B20A39C9B21C
:10283000771C0AAB995529002000FFF7C3FAAC4278
:1028400010D31F2F0ED83E00040029002000FFF7F0
:10285000B9FACBB2092BE3D83033D9B2E8E761211A
:10286000E2E7270043460693209B05931F9B0493B2
:1028700003955B46029301970AAB0093099B089A64
:1028800051464846FFF722FF13B0F0BCBB46B246A4
:10289000A946A046F0BDF0B5DE4657464E46454631
:1028A000E0B597B00A900B910C929A46209B9946FE
:1028B000219F22AA13789B46249B0993259C289B41
:1028C00098464A463A4302D11032934398468022B2
:1028D000D20045461540434613420AD04A463A4381
:1028E00041D000252E0053460D934D46099B9A4634
:1028F00021E02E0053460D934D46099B9A461AE05F
:102900004246920623D54122D218D2B20A3AD2B216
:10291000731C99460EAB9A55524623002800390085
:10292000FFF78EFABC4220D813D04B461F2B16D887
:102930004E4605000F005246230028003900FFF7DD
:102940007FFAD3B2092BDBD83033DAB2E0E7612269
:10295000DAE7AA45E9D94E460D9B9A4608E04E466D
:102960000D9B9A4604E0002602E04E460D9B9A46D7
:1029700043460693279B0593269B0493099B039349
:102980005B46029301960EAB009353460C9A0B994B
:102990000A98FFF79BFE17B0F0BCBB46B246A946AB
:1029A000A046F0BDF0B5DE4657464E464546E0B57A
:1029B00091B0804689460C929A461A9C1B9D220033
:1029C0002B0020002900FFF7B6FC002800D0F2E021
:1029D00001225242D54B20002900FFF7A7FC002816
:1029E00000D0E8E001225242D14B20002900FFF73D
:1029F00087FC002800D0DEE0002200232000290010
:102A0000FFF77EFC002800D0EAE0069407958023BB
:102A1000DB001E9A1A400D921E9A1A4201D106231B
:102A20001C930698079902000B0008920993030073
:102A30000A00024300D1DFE0080D4005400DBD4E05
:102A4000B4466044079E3203120B1E00BA4B134378
:102A50001F00FFF781FCB94AB94BFFF712FCB94AD6
:102A6000B94BFFF7EFFB089009910022B74B3000FC
:102A70003900FFF7E2FBB64AB64BFFF702FC020053
:102A80000B0008980999FFF7DDFBFFF77DFC8346F3
:102A9000FFF762FC06000F00AF4AB04BFFF7F1FBF7
:102AA0000022AF4BFFF7CEFBFFF76EFC0890AD4A5C
:102AB000AD4B30003900FFF7E4FB06000F0008982B
:102AC000FFF74AFCA94AAA4BFFF7DBFB02000B0009
:102AD00030003900FFF7B1FB06000F0002000B00C9
:102AE000FFF7CFFB0A900B91089BA24A94466344E0
:102AF00000210022089109921B05099300230893E5
:102B000032003B0030003900FFF79CFB0E900F9124
:102B100032003B0000208021C905FFF78EFB060034
:102B20000F000022944B0A980B99FFF790FB0022AC
:102B3000924BFFF787FB02000B000A980B99FFF7F7
:102B400086FB00228E4BFFF77DFB02000B000A98EC
:102B50000B99FFF77CFB02000B0030003900FFF7F8
:102B600071FB02000B000E980F99FFF770FB00221B
:102B7000714BFFF767FB089A099BFFF782FB060082
:102B80000F0008960997069A079BFFF7CFFB0028CE
:102B90000BD001235B429C46E3440022774B30007C
:102BA0003900FFF754FB089009915B466333C62B4D
:102BB00045D8042623E01E9B04931D9B03931C9B76
:102BC00002930094019553460C9A4946404600F002
:102BD000FBF811B0F0BCBB46B246A946A046F0BD1A
:102BE0000021002206910792069480231B069C4632
:102BF000AC44634607930AE700239B4604261E9BCA
:102C00001B0528D5089A099B190011430FD05D4A6E
:102C10005D4B06980799FFF781FB00287AD00022C8
:102C20005A4B06980799FFF76BFB002872D01C9B44
:102C30005B4506DD5A469B1A013B1C9303E00526C3
:102C4000DDE700231C938023DB001E9A1A431E92AB
:102C5000002600239B461D9B9E4265D29F1B02239C
:102C60001E9A1A400A921E9A134202D0002E00D0D9
:102C700000275B46002B07D0089A099B0698079906
:102C8000FFF7E5FA069007910022002320002900B3
:102C9000FFF736FB002800D07CE03D4B1E9A134026
:102CA000049303971C9B0293069B079C009301943B
:102CB00053460C9A4946404600F086F8002E00D153
:102CC00087E71E9B9B0671D54525441C5346020091
:102CD00049462800C0475A46D317D2185A40052300
:102CE0000593013E0496002303930A3302935B4647
:102CF000DB0F019300925346220049464046FFF7FE
:102D00006CFD0A9B002B00D163E7020047460C9E36
:102D10001D9D53E01C9B002B9DD00D9B002B9AD03A
:102D20001C9B013B1C9396E7002798E7FFFFEF7F72
:102D3000FFFFEFFF01FCFFFF0000F03FFB799F501A
:102D40001344D33FB3C8608B288AC63F0000F83FC6
:102D500061436F63A787D23F71A379094F930A40FC
:102D60000000E03F1655B5BBB16B0240EF39FAFEEB
:102D7000422EE63FFF03000000002C4000002440EC
:102D8000000018402D431CEBE2361A3F80842E4190
:102D9000FFF7FFFF069C079D220029008020000608
:102DA000844661440B000692079376E765258CE71D
:102DB000541C534649462020B8472200931BAB427F
:102DC000F6D3100005E7C046F0B5DE4657464E463E
:102DD0004546E0B595B00690079193469946209FE9
:102DE0001E9A1F9B10001900FFF7A5FA002831D189
:102DF00001225242BC4B1E981F99FFF781FA00280E
:102E000037D101225242B94B1E981F99FFF78EFA13
:102E100000283DD10022B64B1E981F99FFF786FA75
:102E200000284AD10022B34B1E981F99FFF768FA79
:102E3000002842D1002200231E981F99FFF760FA54
:102E400000284AD100239846229B5B0500D4B0E0BD
:102E5000002452E0229B0393219B029303230193BE
:102E6000A54B00934B465A4607990698FFF7D6FBA9
:102E700008E1229B0393219B0293042301939F4B20
:102E800000934B465A4607990698FFF7C7FBF9E0AF
:102E9000229B5B070ED59A4B04222299039121991C
:102EA0000291019200934B465A4607990698FFF704
:102EB000B5FBE7E0934B0322EFE7229B0493219BB2
:102EC000039302971E9B1F9C009301944B465A4606
:102ED00007990698FFF766FDD4E01E9A1F9B002015
:102EE0000021FFF7AAF91E901F9101239846ABE736
:102EF0000CAB30221A55013F01341F2C01D8092F89
:102F0000F6D81E981F99FFF73FFA0500FFF724FA3D
:102F100002000B001E981F99FFF78FF97A4BFA00F9
:102F20009B181A685B680A920B93FFF7AAF908903E
:102F30000991FFF74DFA0600FFF70AFA02000B00AD
:102F400008980999FFF779F90890099100226F4BC9
:102F5000FFF7ECF900282ED001363000FFF7F8F922
:102F600002000B000A980B99FFF7D0F9002801D056
:102F700001350026002F2CD12800FFF7EDF90200C3
:102F80000B001E981F99FFF758F906000F0000224A
:102F90005E4BFFF7B5F9002846D100225B4B3000AD
:102FA0003900FFF7C3F900283ED1EB073CD50135C6
:102FB0003AE006274CE70022544B08980999FFF79E
:102FC0009FF90028D6D1002E01D0F307D2D50136C3
:102FD000D0E7AA461F2C11D8013F0A213000FEF786
:102FE000F1FE651C30310CAB19550A213000FEF79B
:102FF000E9FE092E0ED906002C00EBE755461F2CE2
:103000000CD87B1E002F09D00CAA302111551F00AF
:103010000134F4E72B0055461C00F0E71F2C03D8C1
:103020000CAB2E221A5501341F2C10D80A2128006F
:10303000FEF7A0FE661C30310CAB19550A212800A2
:10304000FEF798FE051E01D03400EDE7340003239F
:10305000229A1340012B1CD01F2C06D84346002B6C
:1030600032D00CAB2D221A550134229B0393219BA5
:10307000029301940CAB00934B465A46079906986D
:10308000FFF7CCFA15B0F0BCBB46B246A946A04645
:10309000F0BD219B002B13D04346002B02D10C33F3
:1030A00013420FD0219B013B2193190003E00CAB8D
:1030B00030221A5501348C42CED21F2CF7D9CBE7DF
:1030C0002199F8E72199F6E7229B5B0704D50CAB21
:1030D0002B221A550134C8E7229B1B07C5D50CAB20
:1030E00020221A550134C0E7FFFFEFFFFFFFEF7FFB
:1030F00065CDCD4165CDCDC14C4B0010504B00107E
:10310000404B0010484B0010405100100000E03FC1
:10311000F0B5DE4657464E464546E0B593B007004B
:103120008A4693461193002900D12CE3002508E03C
:103130006C1C5B462A005146B847119B0133119322
:103140002500119B1878002800D11EE32528EFD117
:10315000013311930023180020E0012318430132AA
:103160001192012418E00223184301321192012424
:1031700012E0042318430132119201240CE00823C9
:10318000184301321192012406E010231843013242
:103190001192012400E00024002C09D0119A137828
:1031A000203BD9B21029F6D88B00C449CB589F4692
:1031B0008146119B1A781300303BDBB2092B10D9E2
:1031C0002A2A13D00B94119B1A782E2A20D0119AF8
:1031D0001378683BD9B2122965D88B00B849CB580F
:1031E0009F4611A8FFF708FA0B90ECE71C9B1A1DED
:1031F0001C921B68002B04DB0B93119B0133119372
:10320000E1E702220100114389465B420B93F4E798
:103210008022D2004946114389465A1C11925A789D
:103220001300303BDBB2092B0BD92A2ACFD11C9BD0
:103230001A1D1C921C68002C08DB119B0133119392
:10324000C5E711A8FFF7D8F90400C0E70024F4E7A8
:1032500080235B0049460B43511C119151786C2926
:1032600001D099461FE0C0239B0049461943894677
:103270000232119217E0802349460B43511C1191F1
:103280005178682901D099460DE0C0234946194379
:1032900089460232119206E080235B0049461943B9
:1032A000894601321192119B187867281CD825286D
:1032B00000D25EE20300253BDAB2422A00D958E28E
:1032C0009300804AD3589F4680239B004946194368
:1032D000894601321192E6E780235B004946194393
:1032E000894601321192DEE7782800D941E2692847
:1032F00000D23EE20200693AD2B201239340724A00
:10330000134210D11A0600D50CE25B0500D430E25E
:103310001C9B1A1D1C921E68002C00D0BAE10122D1
:103320005242330096E16F2842D005D8582841D048
:10333000622803D1022606E078283DD010234A46B1
:103340009A4391460A26582838D0692805D064281F
:1033500003D00C224B46934399464B465A0502D55F
:1033600001229343994669282DD064282BD04B46DF
:103370009A0500D5AAE0DA0500D5C2E05A0600D4C5
:10338000D3E01C9A111D1C911168FF220A404B4684
:1033900005930B9B049303940296002301930092E0
:1033A0005B462A0051463800FFF717FA05002AE06D
:1033B0000826C8E71026C6E71026C4E720224B4699
:1033C00013439946C1E74B469A0520D4DA0551D4F8
:1033D0005A0666D51C9A111D1C911168FF220A40DD
:1033E000D017111841404B4605930B9B049303944F
:1033F0000296D20F019200915B462A005146380096
:10340000FFF7EBF90500119B0133119399E61C9A24
:10341000073207218A43110008311C911168536853
:103420009C46DB170C930D930C9A0D9B10004840A3
:103430000E900D9B61464B400F930E980F990C9A7E
:103440000D9B801A99410E900F914B4608930B9B50
:10345000079306940496002305936346DA0F0292BD
:10346000009001915B462A0051463800FFF713FA9D
:103470000500C8E71C9A111D1C911268D01711187D
:10348000414005930B9B049303940296D20F019243
:1034900000915B462A0051463800FFF79EF905006F
:1034A000B1E71A0605D51C9A111D1C910023D25EA6
:1034B00096E71C9A111D1C91126891E7A44F001009
:1034C000E84F001034500010419000001C9A073261
:1034D00007218A43110008311C9108930B9B079325
:1034E0000694049600230593029353681268009291
:1034F00001935B462A0051463800FFF7CCF90500DE
:1035000081E71C9A111D1C9105930B9B0493039456
:10351000029600230193136800935B462A005146EC
:103520003800FFF75AF905006DE71A0606D51C9A10
:10353000111D1C9112681204120C28E71C9A111D0F
:103540001C91126823E746281AD01C9B07330722D8
:1035500093431A0008321C924A4604920B9A039233
:1035600002941A685B68009201935B462A005146F8
:103570003800FFF729FC0500119B01331193E0E5AA
:1035800020234A461A439146DFE7672801D047289F
:1035900004D180231B014A461A439146452801D095
:1035A000472803D120234A461A4391461C9B0733E0
:1035B000072293431A0008321C924A4604920B9A3F
:1035C000039202941A685B68009201935B462A009A
:1035D00051463800FFF7E6F90500119B01331193BE
:1035E000AFE502234E461E404A4613421ED0012438
:1035F0001C9B1A1D1C926A1C904618785B462A0078
:103600005146B847002E14D1119B01331193454602
:1036100097E5551C5B4651462020B84723002A00F9
:103620005C1C0B999942F4D81500E1E701232A00AC
:10363000F6E7424606E0561C5B4651462020B84756
:103640002C003200651C0B9BA342F4D89046DBE7AC
:1036500001330A001978002902D0511E002AF7D13F
:103660009B1B8022D20049461140884649461142A0
:1036700002D0A34200D923000222494611401091F2
:1036800049460A4208D02A00250099463B00474691
:10369000984626E0220044E6A1462A005146B2465A
:1036A0000E0006E0551C5B4631002020B847230081
:1036B0002A005C1C0B999942F4D8150022004C4654
:1036C000330056469A4691462A0025003B0047465D
:1036D000984606E01D000136541C5B465146C04723
:1036E00022003078002804D0002FF4D06B1E002D6B
:1036F000F0D115004B464746109A002A03D1119B82
:10370000013311931DE50B9E2A0006E0551C5B4614
:1037100051462020B84723002A005C1C9E42F5D861
:103720001500ECE721234A461A4313001C9A111D89
:103730001C911268059308230493039408330293A1
:103740000023019300925B462A0051463800FFF7A0
:1037500044F80500119B01331193F2E46C1C5B46A5
:103760002A0051462520B847119B013311932500AB
:10377000E7E46C1C5B462A005146B847119B0133B5
:1037800011932500DDE40A4FD0E45D450DD35B467F
:103790005A1E5B4651460020B847280013B0F0BCC3
:1037A000BB46B246A946A046F0BD2A00F1E7C04696
:1037B000E92500100CB430B585B00A0008AC08CC7F
:1037C0000394054D009401002800FFF7A1FC05B00B
:1037D00030BC08BC02B01847E125001010B584B019
:1037E0000C0002A902904C600124044800931300CD
:1037F0006242FFF78DFC04B010BDC046EB250010FF
:1038000000BEFDE710B5FFF7FBFF000030B583B049
:103810000D001900002A0BD0074B084C01920093B1
:103820002B000200200000F061F90120FFF7E8FF03
:10383000034B1A00F1E7C046584B0010684B0010CC
:103840008445001010B5EFF30583002B00D000BEB7
:10385000FEF7A0F9034C01E008CC9847024B9C42CC
:10386000FAD310BDE4430010E843001010B5030084
:10387000080011001B68984710BD0000F8B507004C
:103880000D001600437D002B02D0002400200CE028
:1038900003681100280098472DE03B7D10E03B684D
:1038A000154802219847601C0134B44214DA002CF8
:1038B000F3DD2B19013B1B780D3B5A425341DBB220
:1038C0002A5D0A2AF0D1002BEED1A042E7DA3B684C
:1038D000211A28189847E2E7B04203DA3B68311A08
:1038E00028189847002E06DDAD19013D2B780D3BB9
:1038F0005A4253413B75F8BD9051001070B5050018
:103900000368002B16D00C4B1C6805E0290004C985
:103910002000FFF7B3FF2469002C09D02368002B97
:10392000F9D0064B1B68002BF0D0A342F3D1EDE792
:1039300000232B6070BDC0462C07002030070020FC
:1039400070B505000C000B68802B05D023685A1C4D
:103950002260E418257170BD0800FFF7CFFFF5E77E
:1039600010B5FDF7CDFE074A002312184B41002B7E
:1039700003DB054800F010FD10BD01225242034B4D
:10398000F7E7C04640420F0038040020FFFFFF7FEA
:1039900010B5024800F0E8FC10BDC0463804002015
:1039A000F0B5CE46474680B583B006000D00904680
:1039B0001C00FFF7D5FF81466B1C05D0002C08D0FA
:1039C000184F194B1C6807E0300000F09BFC050005
:1039D000F4E7164FF5E72469002C17D02368002B75
:1039E000F9D0134B1B68002B01D0A342F3D12A005E
:1039F00031002000B8474346002BECD06B46D91D60
:103A00000A230B7001222000B847E4E74B46002B45
:103A100005D1280003B0C0BCB946B046F0BDFFF7E1
:103A2000B7FFF6E77D3800102C0700206D38001036
:103A3000300700200A4A136802E01A0010321B699E
:103A4000002B09D013688342F7D1002907D10369FD
:103A500013600023036102E0002900D0106070476A
:103A60002C07002010B5064B1C6800E02469002CD0
:103A700004D06368002BF9D09847F7E710BDC04623
:103A80002C07002010B500F043F9012010BD70B5DF
:103A9000050000F037FC040001230122010028008A
:103AA000FFF77EFFFFF7DEFF200070BDF0B5A3B08B
:103AB00004000E00FFF754FF050001AF002301933F
:103AC0000948330022003900FFF788FE040038005F
:103AD000FFF714FFFFF7C6FF002D02D1200023B02F
:103AE000F0BDFFF755FFF9E7413900100FB400B5FD
:103AF00083B004A901C90191FFF7D8FF03B008BC46
:103B000004B0184710B582B00C00144BC3185A42C9
:103B10005341134A5B009B5E8B4204D06B46DA1D17
:103B20001470002115E06B46DA1D0D23137000217F
:103B30000029F3D183699B06FCD41378036001311B
:103B40000132F5E783699B06FCD4137803600131E9
:103B500001320029F6D002B010BDC0460080FCBF83
:103B60006409002082B000226B46D91D06E08369FB
:103B7000DB06FCD403680B7001320131002AF6D059
:103B80006B46D87902B0704770B506000D0000246E
:103B900005E0315D034B1868FFF7B4FF0134AC4218
:103BA000F7DB70BD68090020F8B506000D0000279E
:103BB00005E07C1CF719FFF7D5FF38702700AF42EE
:103BC00004DA0D4A10688269D206F2D50B4A1268EF
:103BD000002A0AD0084A126850219163506B1839A4
:103BE0000140074B9C4662441160002F01D0380011
:103BF000F8BD033FFBE7C04668090020F806002037
:103C00003410000010B5064B1B68002B06D0054A87
:103C1000126800219163044A1068984710BDC0469D
:103C2000F806002068090020FC060020024B1A68F4
:103C300093691B07FCD470476809002070B51D4BC1
:103C40001B681D4A934207D0142400281ED01B4B2A
:103C50001B68002B02D070BD1524F6E7174B1860C7
:103C6000174B196017492000FCF75EFF0121200067
:103C7000FCF748FF0F4B1B6850229A63596B183AA8
:103C80000A4011498C4663441A60E4E70B4A126803
:103C9000002AE0D000259D6300212000FCF732FFC0
:103CA00008492000FCF76AFF044B1D60044B1D60AF
:103CB000D1E7C0466809002000800340F8060020D4
:103CC000FC060020053C00103410000070B50D000B
:103CD0001C000D4B1860002A0BDA002C0EDA0A4B80
:103CE00018682900FDF7B4FD08480121FFF7A2FE7E
:103CF00070BD02211000FCF7CDFDEEE7022120008F
:103D0000FCF7C8FDEBE7C04668090020D0020020A0
:103D100010B5074B1B78074B1B78074B1B78E1212D
:103D20000123002249020548FFF7D0FF10BDC0461D
:103D3000F0520010EC520010E85200100040034016
:103D4000074B83420AD0042301229A40054B1A6094
:103D5000054B1B6811009943FAD170470323F3E721
:103D6000E802002000F0004008C00040F0B5DE4648
:103D700057464E464546E0B587B0070093461800C3
:103D8000039310AB1A780592119D129A90463B68E6
:103D90000022DA663B6859603B680132DA660290BD
:103DA000002399460493002600242DE03B79002B44
:103DB00039D0012337E0059A002A01D0002236E0ED
:103DC000012234E0002E0CD13B685B6BDB0608D48B
:103DD000002DF7D000214046A84706000443E4B276
:103DE000F0E7002E09D13B6880229A580492002AFD
:103DF00028D1002C39D1CA4527D0002C3DD1012330
:103E00009C46E144019B9B46029B994535DA039B06
:103E1000013B9A46002D02D001214046A8474B465F
:103E2000002BC3D000239B02CA45C4D000225202FB
:103E300013435A46013201925A4611783A680B43AD
:103E40001361C5E75B6D01240FE0059B002BD4D106
:103E50000BE000214046A84706000443E4B2002ED0
:103E600006D13B685B6B9B0502D4002DF1D1F6E7D0
:103E7000002EC2D13B681B6EBFE7002C08D0002E7D
:103E800010D1049A002A11D0D30713D4130715D5E3
:103E9000059B3B71484607B0F0BCBB46B246A946FD
:103EA000A046F0BD02235B429946F1E701235B4245
:103EB0009946EDE701235B429946E9E701235B421E
:103EC0009946E5E7F0B5D6464F464646C0B50500EB
:103ED0000C000520FDF76EFD06006008801921002A
:103EE000FDF770FF070043009946814405214846CD
:103EF000FDF768FF80463B1A9A46274B9C423CD808
:103F0000700080192549FDF75DFF441C4346023BC4
:103F1000A34239D32B680022DA662B681968043271
:103F2000514002320A40802149018C4663441A60A4
:103F30002B685246DA612B6842461A624B464F2B79
:103F400028D950214846FDF73DFF2A68A023D050CC
:103F50002B68DA6F54402404240C114A94466344BD
:103F60001C602B680122DA6639003000FDF72AFF59
:103F7000E0BCBA46B146A846F0BD700080190949B8
:103F8000FDF720FF441CC1E7074B084A08485D21A4
:103F9000FFF73CFC0120D8E73F420F0080969800D5
:103FA0007C10000040787D01C44B0010B05100101F
:103FB000E44B001070B504000D00114B98421DD069
:103FC0000422012393400F4A13602000FFF7B8FE3C
:103FD000002323712268D36622686621FF311160B5
:103FE0002268D36322689363226888336339FF3978
:103FF000D15029002000FFF765FF70BD0322E0E7E4
:10400000E802002000E0004030B585B008AC25781B
:104010000024029401940095FFF7A8FE05B030BD7E
:1040200010B50A22002100F0ADF810BDF0B55746DA
:104030004E464546DE46E0B582460F0090461E00DD
:10404000994683B0242B43D8012B41D00B00082084
:104050004A4D1A0014780133295D0842F9D11D0038
:104060002D2C00D176E02B2C3ED0454B9B460023D7
:104070000193002E53D1302C00D173E00A230A267D
:10408000994649465846FDF79DFE2B008C463D005B
:104090000200270000214C460020E146AC463D00CE
:1040A000303D092D07D9113D192D03D93D00613D42
:1040B000192D20D80A35AE421DDD4F1C05D0824295
:1040C0002AD327D00121604328181F780133E6E75F
:1040D00000F0C6F816230360002003B0F0BCBB4616
:1040E000B246A946A046F0BD1C78254B951C9B46C0
:1040F00000230193BDE767464A1C21D0019A002A9C
:1041000000D040424246002AE7D0002933D143463E
:104110001F60E2E7A945D5DA01214942D5E7102E13
:10412000AFD110239946302CABD120222B7893436A
:10413000582BA6D110236C78994610260235A0E79B
:10414000222251460A6042465846002AC5D05846A7
:104150005F1EDCE71C7880231B069B460123951C11
:10416000019386E720222B789343582BE2D0082333
:104170000836994685E78346E9E7C046C5510010F1
:10418000FFFFFF7F10B504001300034A10680A0008
:104190002100FFF74BFF10BDF002002030B5002AD0
:1041A00027D003000B439B0713D1032A11D9134DCA
:1041B0000BE0043A002A1CD0114C1C199C432C42E1
:1041C00017D104300431032A03D903680C68A342D1
:1041D000EFD00D78047801230139AC4207D00AE012
:1041E000002C06D0C45C0133CD5CAC4203D19A42B2
:1041F000F6D1002030BD601BFCE7C0468080808087
:10420000FFFEFEFE0B00034370B506009B070DD1B9
:10421000032A0BD9104D0C68104BE318A3432B4213
:1042200004D1043A043110C6032AF4D83300002420
:1042300006E00D5D013A355501330134002D02D001
:10424000002AF6D170BD00219C18002AFAD01970FE
:1042500001339C42FBD1F5E780808080FFFEFEFEAB
:10426000014B18687047C046F0020020024670B546
:104270000A4392072AD11E4DEE0104C808C9541BF7
:104280009443344017D0D0B2D9B2401A210601432A
:1042900010D190B299B2401A210401430AD1100200
:1042A0001902000A090A401A2102014302D1100E24
:1042B000190E401A70BD9A42DFD010BA19BA88425E
:1042C00001D9012070BD0020C04370BD02780B7879
:1042D00001300131002A09D09A4207D102780B78C7
:1042E00001300131002A01D09A42EFD0D01A70BDBE
:1042F0000101010103000A7801311A700133002A1B
:10430000F9D1704710B583070AD00300032102E0FA
:1043100001330B4205D01A78002AF9D1181A10BDC2
:10432000030019680C4A0D4C8A188A4322420FD1A7
:104330005968094A04338A188A43224208D15968C5
:10434000054A04338A188A432242F1D000E001333F
:104350001A78002AFBD1E1E7FFFEFEFE8080808014
:10436000F8B5C0460000000001B40248844601BC14
:10437000604700BFCD01002001B40248844601BC63
:10438000604700BF1902002001B40248844601BC06
:10439000604700BF1902002001B40248844601BCF6
:1043A000604700BF99010020A51B0010D11B001021
:1043B000651D0010B9250010ED23001031250010F7
:1043C000991C0010ED1B00100D1C0010211C00108A
:1043D000450E0010291C001051160010911B0010F2
:0843E000FD090010B1020010FC
:1043E8004465736B557020486569676874204D6F24
:1043F8006E69746F72205374617274696E672E2EC1
:104408002E0000004465736B5570204D6F6E697403
:104418006F72000057616974696E6720666F720079
:1044280075736572206C6F67696E2E2E2E00000002
:10443800557365722064657465637465643A2025F4
:1044480073202849443A202564290A004465736B7F
:104458005570204163746976650000005573657274
:104468003A00000055736572206C6F6767656420B9
:104478006F7574005570646174696E672064697340
:10448800706C6179202D204465736B3A2025642C6B
:10449800204865696768743A20256420636D2C207C
:1044A800557365723A2025730A00000055736572CA
:1044B8003A202573000000004465736B3A20256498
:1044C800000000004865696768743A202564206325
:1044D8006D0000004E6F6E6500000000554152549B
:1044E80020696E697469616C697A656420666F72A7
:1044F800204465736B557020636F6D6D756E6963CD
:104508006174696F6E0000004C4F47494E3A0000D5
:1045180055736572206C6F6767656420696E3A2011
:1045280025640A00555345523A00000055736572D8
:10453800206E616D653A2025730A00004C4F474F85
:10454800555400004845494748543A00486569674A
:10455800687420757064617465643A20256420630A
:104568006D0A00004445534B3A0000004465736BE4
:10457800206E756D6265723A2025640A000000009D
:104588000A2A2A2A2050414E4943202A2A2A0A0068
:1045980030783163203D3D20282A696E7374293EA6
:1045A8003E31317500000000433A2F557365727330
:1045B8002F646F776E792F2E7069636F2D73646B1C
:1045C8002F73646B2F322E322E302F7372632F723B
:1045D80070325F636F6D6D6F6E2F686172647761A3
:1045E80072655F6972712F6972712E630000000035
:1045F80064656C7461203E3D202D323034382026AD
:10460800262064656C7461203C3D203230343620AD
:10461800262620212864656C746120262031290013
:10462800212864656C7461203E3E20313175290073
:1046380063757272656E74203D3D205F5F756E68AC
:10464800616E646C65645F757365725F6972712011
:104658007C7C2063757272656E74203D3D206861B4
:104668006E646C657200000021657863657074691A
:104678006F6E207C7C20657863657074696F6E202E
:104688003D3D206E756D202B20565441424C455FB0
:1046980046495253545F49525100000066616C7399
:1046A8006500000069735F7368617265645F6972B1
:1046B800715F7261775F68616E646C657228736C94
:1046C8006F745F68616E646C6572290065786365F4
:1046D8007074696F6E000000666F756E640000008C
:1046E80031203D3D202875696E747074725F74299D
:1046F8006C2D3E7370696E5F6C6F636B0000000019
:10470800433A2F55736572732F646F776E792F2E26
:104718007069636F2D73646B2F73646B2F322E3245
:104728002E302F7372632F636F6D6D6F6E2F7069EC
:10473800636F5F73796E632F6D757465782E630090
:10474800746F74616C0000006D74782D3E636F7235
:10475800652E7370696E5F6C6F636B006C6F636B53
:104768005F69735F6F776E65725F69645F76616CAE
:104778006964286D74782D3E6F776E657229000024
:104788006D74782D3E656E7465725F636F756E74B7
:1047980000000000706F6F6C2D3E74696D65725F6C
:1047A800616C61726D5F6E756D203D3D2074696D41
:1047B80065725F616C61726D5F6E756D00000000FF
:1047C800433A2F55736572732F646F776E792F2E66
:1047D8007069636F2D73646B2F73646B2F322E3285
:1047E8002E302F7372632F636F6D6D6F6E2F70692C
:1047F800636F5F74696D652F74696D652E63000062
:1048080064656661756C745F616C61726D5F706F11
:104818006F6C5F696E697469616C697A656428296F
:1048280000000000417474656D7074656420746FD5
:1048380020736C65657020696E73696465206F66A6
:1048480020616E20657863657074696F6E20686199
:104858006E646C65723B2075736520627573795F51
:104868007761697420696620796F75206D75737436
:1048780000000000486172647761726520616C61B4
:10488800726D20256420616C726561647920636CA7
:1048980061696D656400000076636F5F66726571BB
:1048A800203E3D205049434F5F504C4C5F56434F8C
:1048B8005F4D494E5F465245515F485A2026262093
:1048C80076636F5F66726571203C3D205049434FA7
:1048D8005F504C4C5F56434F5F4D41585F465245C1
:1048E800515F485A00000000433A2F5573657273B0
:1048F8002F646F776E792F2E7069636F2D73646BD9
:104908002F73646B2F322E322E302F7372632F72F7
:1049180070325F636F6D6D6F6E2F6861726477615F
:1049280072655F706C6C2F706C6C2E6300000000F9
:104938006662646976203E3D203136202626206650
:1049480062646976203C3D203332300028706F73F2
:10495800745F64697631203E3D2031202626207020
:104968006F73745F64697631203C3D2037292026B7
:10497800262028706F73745F64697632203E3D206C
:104988003120262620706F73745F64697632203C6C
:104998003D203729000000007265665F6672657108
:1049A800203C3D202876636F5F66726571202F205A
:1049B800313629006D697373696E6720646F75629B
:1049C8006C652066756E6374696F6E002A28287599
:1049D800696E74385F74202A29282828766F6964DC
:1049E800202A29726F6D5F7461626C655F666C6FF7
:1049F8006174292D322929202A2034203E3D205354
:104A0800465F5441424C455F56325F53495A450010
:104A1800433A2F55736572732F646F776E792F2E13
:104A28007069636F2D73646B2F73646B2F322E3232
:104A38002E302F7372632F7270325F636F6D6D6FDC
:104A48006E2F7069636F5F646F75626C652F646F3A
:104A580075626C655F696E69745F726F6D5F7270A5
:104A6800323034302E6300002A282875696E743875
:104A78005F74202A29726F6D5F7461626C652D32D4
:104A880029202A2034203E3D2053465F5441424C81
:104A9800455F56325F53495A45000000433A2F5547
:104AA800736572732F646F776E792F2E7069636FD9
:104AB8002D73646B2F73646B2F322E322E302F734D
:104AC80072632F7270325F636F6D6D6F6E2F7069D6
:104AD800636F5F666C6F61742F666C6F61745F697A
:104AE8006E69745F726F6D5F7270323034302E632E
:104AF800000000004465627567000000626F6F7413
:104B0800325F77323571303830000000302E310096
:104B1800322E322E300000007069636F5F7700001C
:104B28005069636F344465736B5570004465632046
:104B38003139203230323500666E692B00000000B2
:104B4800666E69006E616E00666E692D0000000079
:104B58002C2066756E6374696F6E3A200000000041
:104B6800617373657274696F6E20222573222066E3
:104B780061696C65643A2066696C65202225732238
:104B88002C206C696E65202564257325730A000046
:104B98005541525420737464696E00005541525453
:104BA800207374646F757400554152542073746493
:104BB800696E202F207374646F7574007364615F6D
:104BC80074785F686F6C645F636F756E74203C3DCA
:104BD800206C636E74202D2032000000433A2F555C
:104BE800736572732F646F776E792F2E7069636F98
:104BF8002D73646B2F73646B2F322E322E302F730C
:104C080072632F7270325F636F6D6D6F6E2F6861A4
:104C18007264776172655F6932632F6932632E63EC
:104C280000000000000000000000005F0000000716
:104C3800000700147F147F14242A7F2A12231308E4
:104C4800646236495522500005030000001C2241C9
:104C5800000041221C0014083E081408083E0808F9
:104C680000503000000808080808006060000020B4
:104C7800100804023E5149453E00427F400042610F
:104C88005149462141454B311814127F102745459B
:104C980045393C4A494930017109050336494949B2
:104CA80036064949291E00363600000056360000EF
:104CB8000814224100141414141400412214080288
:104CC80001510906324979413E7E1111117E7F4911
:104CD8004949363E414141227F4141221C7F494991
:104CE80049417F090909013E4149497A7F08080875
:104CF8007F00417F41002040413F017F081422414D
:104D08007F404040407F020C027F7F0408107F3EB6
:104D18004141413E7F090909063E4151215E7F0913
:104D2800192946464949493101017F01013F40405F
:104D3800403F1F2040201F3F4038403F6314081465
:104D48006307087008076151494543007F414100E6
:104D580002040810200041417F00040201020440BF
:104D680040404040000102040020545454787F48D9
:104D78004444383844444420384444487F385454E0
:104D88005418087E0901020C5252523E7F0804044E
:104D98007800447D40002040443D007F10284400B6
:104DA80000417F40007C041804787C0804047838AB
:104DB800444444387C14141408081414187C7C08DF
:104DC8000404084854545420043F4440203C4040C4
:104DD800207C1C2040201C3C4030403C44281028AB
:104DE800440C5050503C4464544C44000836410034
:104DF80000007F0000004136080010080810080075
:104E08000000000021007F2200070000AED580A826
:104E18003FD300408D142000A1C8DA1281CFD9F108
:104E2800DB40A4A6AF0000006972715F6164645F33
:104E38007461696C5F746F5F667265655F6C6973D6
:104E480074000000696E736572745F626C5F333260
:104E5800000000006972715F72656D6F76655F684A
:104E6800616E646C657200006D616B655F6A5F31CD
:104E7800360000007265736F6C76655F6A5F313665
:104E8800000000006972715F7365745F6578636C18
:104E980075736976655F68616E646C6572000000A1
:104EA8006D757465785F6578697400006D757465F3
:104EB800785F656E7465725F626C6F636B5F756E49
:104EC80074696C0072756E74696D655F696E69747A
:104ED8005F6D757465780000616C61726D5F706FED
:104EE8006F6C5F6765745F64656661756C740000FC
:104EF800616C61726D5F706F6F6C5F6972715F6812
:104F0800616E646C65720000706C6C5F696E6974C8
:104F1800000000005F5F61656162695F646F7562D0
:104F28006C655F696E6974005F5F61656162695F86
:104F3800666C6F61745F696E697400000600525098
:104F4800D3F07542FC4A001006005250E182887F77
:104F5800044B0010060052503ABCA911144B001023
:104F680006005250ABB36053184B00100600525065
:104F7800BBFF3CB6204B001006005250861C0302B3
:104F8800284B0010060052505422A29D344B0010AA
:104F980005005250DE65F468745600107E3100102A
:104FA80096310010963100108A31001096310010A9
:104FB800963100109631001096310010963100108D
:104FC80096310010963100107231001096310010A1
:104FD8006631001096310010963100105A310010D9
:104FE80076320010A6320010C8320010A632001027
:104FF80050320010A6320010A6320010A63200105F
:10500800A6320010A6320010A6320010A6320010F8
:1050180098320010A6320010A6320010A6320010F6
:10502800A6320010A6320010D83200105C370010EB
:105038007237001072370010723700107237001084
:105048007237001072370010723700107237001074
:105058007237001072370010723700107237001064
:105068007237001072370010723700107237001054
:105078007237001072370010723700107237001044
:105088007237001072370010723700107237001034
:105098007237001072370010723700107237001024
:1050A8007237001072370010723700108A350010FE
:1050B800463500108A35001072370010723700101C
:1050C80072370010723700107237001072370010F4
:1050D80072370010723700107237001072370010E4
:1050E80072370010723700107237001072370010D4
:1050F8007237001072370010263300107237001014
:1051080072370010723700107237001072370010B3
:1051180072370010723700107237001072370010A3
:1051280026330010E2350010263300108A350010AF
:10513800463500108A350010000000000000F03FDE
:10514800000000000000244000000000000059405A
:105158000000000000408F40000000000088C340AD
:1051680000000000006AF8400000000080842E4122
:1051780000000000D01263410000000084D797416E
:105188000000000065CDCD410D0A00000600525018
:1051980053B4F4A1B04B00100800525012000000A4
:1051A80008005250921000006932635F7365745FA3
:1051B800626175647261746500000000002020203F
:1051C80020202020202028282828282020202020AF
:1051D800202020202020202020202020208810107F
:1051E80010101010101010101010101010040404DB
:1051F8000404040404040410101010101010414199
:105208004141414101010101010101010101010186
:10521800010101010101010110101010101042429A
:105228004242424202020202020202020202020256
:1052380002020202020202021010101020000000F6
:105248000000000000000000000000000000000056
:105258000000000000000000000000000000000046
:105268000000000000000000000000000000000036
:105278000000000000000000000000000000000026
:105288000000000000000000000000000000000016
:105298000000000000000000000000000000000006
:1052A80000000000000000000000000000000000F6
:1052B80000000000000000000000000000000000E6
:1052C800444F0010504F00105C4F0010684F001002
:1052D800744F0010804F00108C4F0010984F001032
:0C52E800A8510010A051001094510010BB
:1052F40010B503000468EFF3108272B6206800282A
:10530400FCD0BFF35F8F0420185600280BDB002964
:1053140010D0086000201B68BFF35F8F0021196064
:1053240082F3108810BDD0210906097849B2197199
:105334000120F0E70020EEE7F0B5D6464F4646469A
:10534400C0B50500904699460368002B20D0D023B1
:105354001B061B785BB29A462F68EFF3108472B673
:105364003E68002EFCD0BFF35F8F0423EB56002B66
:1053740014DB2B68BFF35F8F00221A6084F310885C
:105384004046494600F06CF80028E5D000200FE0C4
:105394000A4B0B4A0B48A62100F05AF853462B71CE
:1053A4002B68BFF35F8F00221A6084F310880120FA
:1053B400E0BCBA46B146A846F0BDC046504700100E
:1053C400B44E00100847001070B582B006001500F6
:1053D4001C0001A9FFF78CFF002807D1019B5BB2D9
:1053E400D0221206127852B2934201D102B070BD9B
:1053F4002A0023003000FFF79FFFF7E710B501688C
:10540400EFF3108372B60A68002AFCD0BFF35F8FF3
:1054140004228256002A0ADBFF2202710268BFF3CB
:105424005F8F0021116083F3108840BF10BD034BD0
:10543400034A0448D52100F00BF8C0466447001025
:10544400A84E0010084700107047C0460000000036
:1054540001B40248844601BC604700BF0D38001007
:1054640001B40248844601BC604700BF2D150010FA
:105474001000000000000000000001000000000017
:105484000000000000000200000000000000000016
:105494000000030000000000000000000000FF0006
:1054A4000000000001B5486801318E46004770468F
:1054B40009380149884701BD090D001000000000AA
:1054C40000000000000000000000000000000000D8
:1054D4004004002000000000000000000000000064
:1054E400503300004C3300005433000052330000AA
:1054F4004D5300004D43000053340000433400007A
:10550400893B00102D3C0010A93B00103D3C0010CD
:105514000000000000010000004004400000000002
:10552400F80200200000000000000000C005002078
:105534002806002090060020000000000000000063
:105544000000000000000000000000000000000057
:105554000000000000000000000000000000000047
:105564000000000000000000000000000000000037
:105574000000000000000000000000000000000027
:105584000000000000000000000000000000000017
:105594000000000000000000000000000000000007
:1055A40000000000000000000000000000000000F7
:1055B40000000000000000000000000000000000E7
:1055C40001000000000000000E33CDAB34126DE684
:1055D400ECDE05000B0000000000000000000000ED
:1055E40000000000000000000000000000000000B7
:1055F40000000000000000000000000000000000A7
:105604000000000000000000000000000000000096
:105614000000000000000000000000000000000086
:105624000000000000000000000000000000000076
:105634000000000000000000000000000000000066
:105644000000000000000000000000000000000056
:105654000000000000000000000000000000000046
:105664000000000000000000000000000000000036
:04000005100001E9FD
:00000001FF
